{
  "_format": "hh-sol-artifact-1",
  "contractName": "SmartPortal",
  "sourceName": "contracts/WavePortal.sol",
  "abi": [
    {
      "inputs": [],
      "stateMutability": "payable",
      "type": "constructor"
    },
    {
      "anonymous": false,
      "inputs": [
        {
          "indexed": true,
          "internalType": "address",
          "name": "from",
          "type": "address"
        },
        {
          "indexed": false,
          "internalType": "string",
          "name": "character",
          "type": "string"
        },
        {
          "indexed": false,
          "internalType": "uint256",
          "name": "characterIndex",
          "type": "uint256"
        },
        {
          "indexed": false,
          "internalType": "string",
          "name": "message",
          "type": "string"
        },
        {
          "indexed": false,
          "internalType": "uint256",
          "name": "timestamp",
          "type": "uint256"
        }
      ],
      "name": "NewWave",
      "type": "event"
    },
    {
      "inputs": [],
      "name": "getAllWaves",
      "outputs": [
        {
          "components": [
            {
              "internalType": "address",
              "name": "waver",
              "type": "address"
            },
            {
              "internalType": "string",
              "name": "character",
              "type": "string"
            },
            {
              "internalType": "uint256",
              "name": "characterIndex",
              "type": "uint256"
            },
            {
              "internalType": "string",
              "name": "message",
              "type": "string"
            },
            {
              "internalType": "uint256",
              "name": "timestamp",
              "type": "uint256"
            }
          ],
          "internalType": "struct SmartPortal.Wave[]",
          "name": "",
          "type": "tuple[]"
        }
      ],
      "stateMutability": "view",
      "type": "function"
    },
    {
      "inputs": [],
      "name": "getWaveStatus",
      "outputs": [
        {
          "internalType": "uint256",
          "name": "",
          "type": "uint256"
        }
      ],
      "stateMutability": "view",
      "type": "function"
    },
    {
      "inputs": [
        {
          "internalType": "address",
          "name": "",
          "type": "address"
        }
      ],
      "name": "lastWavedAt",
      "outputs": [
        {
          "internalType": "uint256",
          "name": "",
          "type": "uint256"
        }
      ],
      "stateMutability": "view",
      "type": "function"
    },
    {
      "inputs": [
        {
          "internalType": "string",
          "name": "_character",
          "type": "string"
        },
        {
          "internalType": "uint256",
          "name": "_characterIndex",
          "type": "uint256"
        },
        {
          "internalType": "string",
          "name": "_message",
          "type": "string"
        }
      ],
      "name": "wave",
      "outputs": [],
      "stateMutability": "nonpayable",
      "type": "function"
    }
  ],
  "bytecode": "0x608060405262000033604051806060016040528060398152602001620018a8603991396200005b60201b620007511760201c565b6064444262000043919062000160565b6200004f9190620001ca565b600181905550620002c0565b620000fb816040516024016200007291906200029c565b6040516020818303038152906040527f41304fac000000000000000000000000000000000000000000000000000000007bffffffffffffffffffffffffffffffffffffffffffffffffffffffff19166020820180517bffffffffffffffffffffffffffffffffffffffffffffffffffffffff8381831617835250505050620000fe60201b60201c565b50565b60008151905060006a636f6e736f6c652e6c6f679050602083016000808483855afa5050505050565b6000819050919050565b7f4e487b7100000000000000000000000000000000000000000000000000000000600052601160045260246000fd5b60006200016d8262000127565b91506200017a8362000127565b925082820190508082111562000195576200019462000131565b5b92915050565b7f4e487b7100000000000000000000000000000000000000000000000000000000600052601260045260246000fd5b6000620001d78262000127565b9150620001e48362000127565b925082620001f757620001f66200019b565b5b828206905092915050565b600081519050919050565b600082825260208201905092915050565b60005b838110156200023e57808201518184015260208101905062000221565b60008484015250505050565b6000601f19601f8301169050919050565b6000620002688262000202565b6200027481856200020d565b9350620002868185602086016200021e565b62000291816200024a565b840191505092915050565b60006020820190508181036000830152620002b881846200025b565b905092915050565b6115d880620002d06000396000f3fe608060405234801561001057600080fd5b506004361061004c5760003560e01c8063622f962914610051578063a42a46631461006f578063bd43a9081461009f578063c47a7751146100bd575b600080fd5b6100596100d9565b6040516100669190610a03565b60405180910390f35b61008960048036038101906100849190610a90565b610124565b6040516100969190610a03565b60405180910390f35b6100a761013c565b6040516100b49190610caa565b60405180910390f35b6100d760048036038101906100d29190610e2d565b610329565b005b600061011c6040518060400160405280601681526020017f43757272656e74207761766520636f756e743a202564000000000000000000008152506000546107ea565b600054905090565b60036020528060005260406000206000915090505481565b60606002805480602002602001604051908101604052809291908181526020016000905b8282101561032057838290600052602060002090600502016040518060a00160405290816000820160009054906101000a900473ffffffffffffffffffffffffffffffffffffffff1673ffffffffffffffffffffffffffffffffffffffff1673ffffffffffffffffffffffffffffffffffffffff1681526020016001820180546101e990610ee7565b80601f016020809104026020016040519081016040528092919081815260200182805461021590610ee7565b80156102625780601f1061023757610100808354040283529160200191610262565b820191906000526020600020905b81548152906001019060200180831161024557829003601f168201915b505050505081526020016002820154815260200160038201805461028590610ee7565b80601f01602080910402602001604051908101604052809291908181526020018280546102b190610ee7565b80156102fe5780601f106102d3576101008083540402835291602001916102fe565b820191906000526020600020905b8154815290600101906020018083116102e157829003601f168201915b5050505050815260200160048201548152505081526020019060010190610160565b50505050905090565b42610384600360003373ffffffffffffffffffffffffffffffffffffffff1673ffffffffffffffffffffffffffffffffffffffff168152602001908152602001600020546103779190610f47565b106103b7576040517f08c379a00000000000000000000000000000000000000000000000000000000081526004016103ae90610fd8565b60405180910390fd5b42600360003373ffffffffffffffffffffffffffffffffffffffff1673ffffffffffffffffffffffffffffffffffffffff16815260200190815260200160002081905550600160008082825461040d9190610f47565b925050819055506104546040518060400160405280601681526020017f257320776176656420772f206d657373616765202573000000000000000000008152503383610886565b60026040518060a001604052803373ffffffffffffffffffffffffffffffffffffffff16815260200185815260200184815260200183815260200142815250908060018154018082558091505060019003906000526020600020906005020160009091909190915060008201518160000160006101000a81548173ffffffffffffffffffffffffffffffffffffffff021916908373ffffffffffffffffffffffffffffffffffffffff160217905550602082015181600101908161051891906111a4565b5060408201518160020155606082015181600301908161053891906111a4565b50608082015181600401555050606460015442446105569190610f47565b6105609190610f47565b61056a91906112a5565b6001819055506105b16040518060400160405280601681526020017f52616e646f6d20232067656e6572617465643a202564000000000000000000008152506001546107ea565b603260015410156106f8576105fb6040518060400160405280600781526020017f257320776f6e210000000000000000000000000000000000000000000000000081525033610925565b6000655af3107a4000905047811115610649576040517f08c379a000000000000000000000000000000000000000000000000000000000815260040161064090611348565b60405180910390fd5b60003373ffffffffffffffffffffffffffffffffffffffff168260405161066f90611399565b60006040518083038185875af1925050503d80600081146106ac576040519150601f19603f3d011682016040523d82523d6000602084013e6106b1565b606091505b50509050806106f5576040517f08c379a00000000000000000000000000000000000000000000000000000000081526004016106ec90611420565b60405180910390fd5b50505b3373ffffffffffffffffffffffffffffffffffffffff167f6c690429c1ab81e8221d73a41906d4ec4d2e966ee84b5de93a7e6a3e892d8740848484426040516107449493929190611479565b60405180910390a2505050565b6107e78160405160240161076591906114cc565b6040516020818303038152906040527f41304fac000000000000000000000000000000000000000000000000000000007bffffffffffffffffffffffffffffffffffffffffffffffffffffffff19166020820180517bffffffffffffffffffffffffffffffffffffffffffffffffffffffff83818316178352505050506109c1565b50565b61088282826040516024016108009291906114ee565b6040516020818303038152906040527fb60e72cc000000000000000000000000000000000000000000000000000000007bffffffffffffffffffffffffffffffffffffffffffffffffffffffff19166020820180517bffffffffffffffffffffffffffffffffffffffffffffffffffffffff83818316178352505050506109c1565b5050565b61092083838360405160240161089e9392919061152d565b6040516020818303038152906040527fe0e9ad4f000000000000000000000000000000000000000000000000000000007bffffffffffffffffffffffffffffffffffffffffffffffffffffffff19166020820180517bffffffffffffffffffffffffffffffffffffffffffffffffffffffff83818316178352505050506109c1565b505050565b6109bd828260405160240161093b929190611572565b6040516020818303038152906040527f319af333000000000000000000000000000000000000000000000000000000007bffffffffffffffffffffffffffffffffffffffffffffffffffffffff19166020820180517bffffffffffffffffffffffffffffffffffffffffffffffffffffffff83818316178352505050506109c1565b5050565b60008151905060006a636f6e736f6c652e6c6f679050602083016000808483855afa5050505050565b6000819050919050565b6109fd816109ea565b82525050565b6000602082019050610a1860008301846109f4565b92915050565b6000604051905090565b600080fd5b600080fd5b600073ffffffffffffffffffffffffffffffffffffffff82169050919050565b6000610a5d82610a32565b9050919050565b610a6d81610a52565b8114610a7857600080fd5b50565b600081359050610a8a81610a64565b92915050565b600060208284031215610aa657610aa5610a28565b5b6000610ab484828501610a7b565b91505092915050565b600081519050919050565b600082825260208201905092915050565b6000819050602082019050919050565b610af281610a52565b82525050565b600081519050919050565b600082825260208201905092915050565b60005b83811015610b32578082015181840152602081019050610b17565b60008484015250505050565b6000601f19601f8301169050919050565b6000610b5a82610af8565b610b648185610b03565b9350610b74818560208601610b14565b610b7d81610b3e565b840191505092915050565b610b91816109ea565b82525050565b600060a083016000830151610baf6000860182610ae9565b5060208301518482036020860152610bc78282610b4f565b9150506040830151610bdc6040860182610b88565b5060608301518482036060860152610bf48282610b4f565b9150506080830151610c096080860182610b88565b508091505092915050565b6000610c208383610b97565b905092915050565b6000602082019050919050565b6000610c4082610abd565b610c4a8185610ac8565b935083602082028501610c5c85610ad9565b8060005b85811015610c985784840389528151610c798582610c14565b9450610c8483610c28565b925060208a01995050600181019050610c60565b50829750879550505050505092915050565b60006020820190508181036000830152610cc48184610c35565b905092915050565b600080fd5b600080fd5b7f4e487b7100000000000000000000000000000000000000000000000000000000600052604160045260246000fd5b610d0e82610b3e565b810181811067ffffffffffffffff82111715610d2d57610d2c610cd6565b5b80604052505050565b6000610d40610a1e565b9050610d4c8282610d05565b919050565b600067ffffffffffffffff821115610d6c57610d6b610cd6565b5b610d7582610b3e565b9050602081019050919050565b82818337600083830152505050565b6000610da4610d9f84610d51565b610d36565b905082815260208101848484011115610dc057610dbf610cd1565b5b610dcb848285610d82565b509392505050565b600082601f830112610de857610de7610ccc565b5b8135610df8848260208601610d91565b91505092915050565b610e0a816109ea565b8114610e1557600080fd5b50565b600081359050610e2781610e01565b92915050565b600080600060608486031215610e4657610e45610a28565b5b600084013567ffffffffffffffff811115610e6457610e63610a2d565b5b610e7086828701610dd3565b9350506020610e8186828701610e18565b925050604084013567ffffffffffffffff811115610ea257610ea1610a2d565b5b610eae86828701610dd3565b9150509250925092565b7f4e487b7100000000000000000000000000000000000000000000000000000000600052602260045260246000fd5b60006002820490506001821680610eff57607f821691505b602082108103610f1257610f11610eb8565b5b50919050565b7f4e487b7100000000000000000000000000000000000000000000000000000000600052601160045260246000fd5b6000610f52826109ea565b9150610f5d836109ea565b9250828201905080821115610f7557610f74610f18565b5b92915050565b600082825260208201905092915050565b7f576169742031356d000000000000000000000000000000000000000000000000600082015250565b6000610fc2600883610f7b565b9150610fcd82610f8c565b602082019050919050565b60006020820190508181036000830152610ff181610fb5565b9050919050565b60008190508160005260206000209050919050565b60006020601f8301049050919050565b600082821b905092915050565b60006008830261105a7fffffffffffffffffffffffffffffffffffffffffffffffffffffffffffffffff8261101d565b611064868361101d565b95508019841693508086168417925050509392505050565b6000819050919050565b60006110a161109c611097846109ea565b61107c565b6109ea565b9050919050565b6000819050919050565b6110bb83611086565b6110cf6110c7826110a8565b84845461102a565b825550505050565b600090565b6110e46110d7565b6110ef8184846110b2565b505050565b5b81811015611113576111086000826110dc565b6001810190506110f5565b5050565b601f8211156111585761112981610ff8565b6111328461100d565b81016020851015611141578190505b61115561114d8561100d565b8301826110f4565b50505b505050565b600082821c905092915050565b600061117b6000198460080261115d565b1980831691505092915050565b6000611194838361116a565b9150826002028217905092915050565b6111ad82610af8565b67ffffffffffffffff8111156111c6576111c5610cd6565b5b6111d08254610ee7565b6111db828285611117565b600060209050601f83116001811461120e57600084156111fc578287015190505b6112068582611188565b86555061126e565b601f19841661121c86610ff8565b60005b828110156112445784890151825560018201915060208501945060208101905061121f565b86831015611261578489015161125d601f89168261116a565b8355505b6001600288020188555050505b505050505050565b7f4e487b7100000000000000000000000000000000000000000000000000000000600052601260045260246000fd5b60006112b0826109ea565b91506112bb836109ea565b9250826112cb576112ca611276565b5b828206905092915050565b7f547279696e6720746f207769746864726177206d6f7265206d6f6e657920746860008201527f616e2074686520636f6e7472616374206861732e000000000000000000000000602082015250565b6000611332603483610f7b565b915061133d826112d6565b604082019050919050565b6000602082019050818103600083015261136181611325565b9050919050565b600081905092915050565b50565b6000611383600083611368565b915061138e82611373565b600082019050919050565b60006113a482611376565b9150819050919050565b7f4661696c656420746f207769746864726177206d6f6e65792066726f6d20636f60008201527f6e74726163742e00000000000000000000000000000000000000000000000000602082015250565b600061140a602783610f7b565b9150611415826113ae565b604082019050919050565b60006020820190508181036000830152611439816113fd565b9050919050565b600061144b82610af8565b6114558185610f7b565b9350611465818560208601610b14565b61146e81610b3e565b840191505092915050565b600060808201905081810360008301526114938187611440565b90506114a260208301866109f4565b81810360408301526114b48185611440565b90506114c360608301846109f4565b95945050505050565b600060208201905081810360008301526114e68184611440565b905092915050565b600060408201905081810360008301526115088185611440565b905061151760208301846109f4565b9392505050565b61152781610a52565b82525050565b600060608201905081810360008301526115478186611440565b9050611556602083018561151e565b81810360408301526115688184611440565b9050949350505050565b6000604082019050818103600083015261158c8185611440565b905061159b602083018461151e565b939250505056fea2646970667358221220456791fcb3c0d4b11961714457900c21f34cd72767241c961af6944a5814135f64736f6c63430008110033486920746865726521204920616d2053696d6f2e20536179206869207769746820796f7572206661766f726974652073757065726865726f21",
  "linkReferences": {},
  "deployedLinkReferences": {}
}