{
  "_format": "hh-sol-artifact-1",
  "contractName": "SmartPortal",
  "sourceName": "contracts/WavePortal.sol",
  "abi": [
    {
      "inputs": [],
      "stateMutability": "nonpayable",
      "type": "constructor"
    },
    {
      "inputs": [
        {
          "internalType": "address",
          "name": "",
          "type": "address"
        }
      ],
      "name": "characterIndex",
      "outputs": [
        {
          "internalType": "uint256",
          "name": "",
          "type": "uint256"
        }
      ],
      "stateMutability": "view",
      "type": "function"
    },
    {
      "inputs": [
        {
          "internalType": "address",
          "name": "",
          "type": "address"
        }
      ],
      "name": "characters",
      "outputs": [
        {
          "internalType": "string",
          "name": "",
          "type": "string"
        }
      ],
      "stateMutability": "view",
      "type": "function"
    },
    {
      "inputs": [
        {
          "internalType": "address",
          "name": "_address",
          "type": "address"
        }
      ],
      "name": "getCharacter",
      "outputs": [
        {
          "internalType": "string",
          "name": "",
          "type": "string"
        }
      ],
      "stateMutability": "view",
      "type": "function"
    },
    {
      "inputs": [
        {
          "internalType": "address",
          "name": "_address",
          "type": "address"
        }
      ],
      "name": "getCharacterIndex",
      "outputs": [
        {
          "internalType": "uint256",
          "name": "",
          "type": "uint256"
        }
      ],
      "stateMutability": "view",
      "type": "function"
    },
    {
      "inputs": [],
      "name": "getWaveStatus",
      "outputs": [
        {
          "internalType": "uint256",
          "name": "",
          "type": "uint256"
        }
      ],
      "stateMutability": "view",
      "type": "function"
    },
    {
      "inputs": [
        {
          "internalType": "address",
          "name": "_address",
          "type": "address"
        },
        {
          "internalType": "string",
          "name": "_character",
          "type": "string"
        }
      ],
      "name": "setCharacter",
      "outputs": [],
      "stateMutability": "nonpayable",
      "type": "function"
    },
    {
      "inputs": [
        {
          "internalType": "address",
          "name": "_address",
          "type": "address"
        },
        {
          "internalType": "uint256",
          "name": "_index",
          "type": "uint256"
        }
      ],
      "name": "setCharacterIndex",
      "outputs": [],
      "stateMutability": "nonpayable",
      "type": "function"
    },
    {
      "inputs": [
        {
          "internalType": "address",
          "name": "_address",
          "type": "address"
        },
        {
          "internalType": "string",
          "name": "_character",
          "type": "string"
        },
        {
          "internalType": "uint256",
          "name": "_index",
          "type": "uint256"
        }
      ],
      "name": "wave",
      "outputs": [],
      "stateMutability": "nonpayable",
      "type": "function"
    }
  ],
  "bytecode": "0x60806040523480156200001157600080fd5b5062000041604051806060016040528060378152602001620011c3603791396200004760201b620005161760201c565b620001d1565b620000e7816040516024016200005e9190620001ad565b6040516020818303038152906040527f41304fac000000000000000000000000000000000000000000000000000000007bffffffffffffffffffffffffffffffffffffffffffffffffffffffff19166020820180517bffffffffffffffffffffffffffffffffffffffffffffffffffffffff8381831617835250505050620000ea60201b60201c565b50565b60008151905060006a636f6e736f6c652e6c6f679050602083016000808483855afa5050505050565b600081519050919050565b600082825260208201905092915050565b60005b838110156200014f57808201518184015260208101905062000132565b60008484015250505050565b6000601f19601f8301169050919050565b6000620001798262000113565b6200018581856200011e565b9350620001978185602086016200012f565b620001a2816200015b565b840191505092915050565b60006020820190508181036000830152620001c981846200016c565b905092915050565b610fe280620001e16000396000f3fe608060405234801561001057600080fd5b50600436106100885760003560e01c80637b33b94d1161005b5780637b33b94d1461012757806385472c161461014357806397c2114f1461015f578063ebd0c91c1461018f57610088565b80630592cf121461008d5780630e1a157b146100a9578063607db846146100d9578063622f962914610109575b600080fd5b6100a760048036038101906100a29190610854565b6101bf565b005b6100c360048036038101906100be9190610894565b610207565b6040516100d091906108d0565b60405180910390f35b6100f360048036038101906100ee9190610894565b610250565b60405161010091906108d0565b60405180910390f35b610111610268565b60405161011e91906108d0565b60405180910390f35b610141600480360381019061013c9190610a31565b610322565b005b61015d60048036038101906101589190610aa0565b610354565b005b61017960048036038101906101749190610894565b6103a5565b6040516101869190610b7b565b60405180910390f35b6101a960048036038101906101a49190610894565b610445565b6040516101b69190610b7b565b60405180910390f35b80600260008473ffffffffffffffffffffffffffffffffffffffff1673ffffffffffffffffffffffffffffffffffffffff168152602001908152602001600020819055505050565b6000600260008373ffffffffffffffffffffffffffffffffffffffff1673ffffffffffffffffffffffffffffffffffffffff168152602001908152602001600020549050919050565b60026020528060005260406000206000915090505481565b60006102a96040518060400160405280600d81526020017f2573206861732077617665642100000000000000000000000000000000000000815250336105af565b6102d3604051806060016040528060288152602001610f85602891396102ce33610445565b61064b565b61031a6040518060400160405280601081526020017f4368617261637465722049443a2025640000000000000000000000000000000081525061031533610207565b6106e7565b600054905090565b60016000808282546103349190610bcc565b925050819055506103458383610354565b61034f83826101bf565b505050565b80600160008473ffffffffffffffffffffffffffffffffffffffff1673ffffffffffffffffffffffffffffffffffffffff16815260200190815260200160002090816103a09190610e0c565b505050565b600160205280600052604060002060009150905080546103c490610c2f565b80601f01602080910402602001604051908101604052809291908181526020018280546103f090610c2f565b801561043d5780601f106104125761010080835404028352916020019161043d565b820191906000526020600020905b81548152906001019060200180831161042057829003601f168201915b505050505081565b6060600160008373ffffffffffffffffffffffffffffffffffffffff1673ffffffffffffffffffffffffffffffffffffffff168152602001908152602001600020805461049190610c2f565b80601f01602080910402602001604051908101604052809291908181526020018280546104bd90610c2f565b801561050a5780601f106104df5761010080835404028352916020019161050a565b820191906000526020600020905b8154815290600101906020018083116104ed57829003601f168201915b50505050509050919050565b6105ac8160405160240161052a9190610b7b565b6040516020818303038152906040527f41304fac000000000000000000000000000000000000000000000000000000007bffffffffffffffffffffffffffffffffffffffffffffffffffffffff19166020820180517bffffffffffffffffffffffffffffffffffffffffffffffffffffffff8381831617835250505050610783565b50565b61064782826040516024016105c5929190610eed565b6040516020818303038152906040527f319af333000000000000000000000000000000000000000000000000000000007bffffffffffffffffffffffffffffffffffffffffffffffffffffffff19166020820180517bffffffffffffffffffffffffffffffffffffffffffffffffffffffff8381831617835250505050610783565b5050565b6106e38282604051602401610661929190610f1d565b6040516020818303038152906040527f4b5c4277000000000000000000000000000000000000000000000000000000007bffffffffffffffffffffffffffffffffffffffffffffffffffffffff19166020820180517bffffffffffffffffffffffffffffffffffffffffffffffffffffffff8381831617835250505050610783565b5050565b61077f82826040516024016106fd929190610f54565b6040516020818303038152906040527fb60e72cc000000000000000000000000000000000000000000000000000000007bffffffffffffffffffffffffffffffffffffffffffffffffffffffff19166020820180517bffffffffffffffffffffffffffffffffffffffffffffffffffffffff8381831617835250505050610783565b5050565b60008151905060006a636f6e736f6c652e6c6f679050602083016000808483855afa5050505050565b6000604051905090565b600080fd5b600080fd5b600073ffffffffffffffffffffffffffffffffffffffff82169050919050565b60006107eb826107c0565b9050919050565b6107fb816107e0565b811461080657600080fd5b50565b600081359050610818816107f2565b92915050565b6000819050919050565b6108318161081e565b811461083c57600080fd5b50565b60008135905061084e81610828565b92915050565b6000806040838503121561086b5761086a6107b6565b5b600061087985828601610809565b925050602061088a8582860161083f565b9150509250929050565b6000602082840312156108aa576108a96107b6565b5b60006108b884828501610809565b91505092915050565b6108ca8161081e565b82525050565b60006020820190506108e560008301846108c1565b92915050565b600080fd5b600080fd5b6000601f19601f8301169050919050565b7f4e487b7100000000000000000000000000000000000000000000000000000000600052604160045260246000fd5b61093e826108f5565b810181811067ffffffffffffffff8211171561095d5761095c610906565b5b80604052505050565b60006109706107ac565b905061097c8282610935565b919050565b600067ffffffffffffffff82111561099c5761099b610906565b5b6109a5826108f5565b9050602081019050919050565b82818337600083830152505050565b60006109d46109cf84610981565b610966565b9050828152602081018484840111156109f0576109ef6108f0565b5b6109fb8482856109b2565b509392505050565b600082601f830112610a1857610a176108eb565b5b8135610a288482602086016109c1565b91505092915050565b600080600060608486031215610a4a57610a496107b6565b5b6000610a5886828701610809565b935050602084013567ffffffffffffffff811115610a7957610a786107bb565b5b610a8586828701610a03565b9250506040610a968682870161083f565b9150509250925092565b60008060408385031215610ab757610ab66107b6565b5b6000610ac585828601610809565b925050602083013567ffffffffffffffff811115610ae657610ae56107bb565b5b610af285828601610a03565b9150509250929050565b600081519050919050565b600082825260208201905092915050565b60005b83811015610b36578082015181840152602081019050610b1b565b60008484015250505050565b6000610b4d82610afc565b610b578185610b07565b9350610b67818560208601610b18565b610b70816108f5565b840191505092915050565b60006020820190508181036000830152610b958184610b42565b905092915050565b7f4e487b7100000000000000000000000000000000000000000000000000000000600052601160045260246000fd5b6000610bd78261081e565b9150610be28361081e565b9250828201905080821115610bfa57610bf9610b9d565b5b92915050565b7f4e487b7100000000000000000000000000000000000000000000000000000000600052602260045260246000fd5b60006002820490506001821680610c4757607f821691505b602082108103610c5a57610c59610c00565b5b50919050565b60008190508160005260206000209050919050565b60006020601f8301049050919050565b600082821b905092915050565b600060088302610cc27fffffffffffffffffffffffffffffffffffffffffffffffffffffffffffffffff82610c85565b610ccc8683610c85565b95508019841693508086168417925050509392505050565b6000819050919050565b6000610d09610d04610cff8461081e565b610ce4565b61081e565b9050919050565b6000819050919050565b610d2383610cee565b610d37610d2f82610d10565b848454610c92565b825550505050565b600090565b610d4c610d3f565b610d57818484610d1a565b505050565b5b81811015610d7b57610d70600082610d44565b600181019050610d5d565b5050565b601f821115610dc057610d9181610c60565b610d9a84610c75565b81016020851015610da9578190505b610dbd610db585610c75565b830182610d5c565b50505b505050565b600082821c905092915050565b6000610de360001984600802610dc5565b1980831691505092915050565b6000610dfc8383610dd2565b9150826002028217905092915050565b610e1582610afc565b67ffffffffffffffff811115610e2e57610e2d610906565b5b610e388254610c2f565b610e43828285610d7f565b600060209050601f831160018114610e765760008415610e64578287015190505b610e6e8582610df0565b865550610ed6565b601f198416610e8486610c60565b60005b82811015610eac57848901518255600182019150602085019450602081019050610e87565b86831015610ec95784890151610ec5601f891682610dd2565b8355505b6001600288020188555050505b505050505050565b610ee7816107e0565b82525050565b60006040820190508181036000830152610f078185610b42565b9050610f166020830184610ede565b9392505050565b60006040820190508181036000830152610f378185610b42565b90508181036020830152610f4b8184610b42565b90509392505050565b60006040820190508181036000830152610f6e8185610b42565b9050610f7d60208301846108c1565b939250505056fe57617665722773206661766f726974652073757065726865726f2f76696c6c61696e206973202573a2646970667358221220994c250274d3d390b3cea1587100c15821b5a49ff2f1bd3f5350a0a29f32a0c664736f6c63430008110033486920746865726521204920616d2053696d6f2e20536179206869207769746820796f7572206661766f7269746520706f6b656d6f6e21",
  "linkReferences": {},
  "deployedLinkReferences": {}
}