{
  "_format": "hh-sol-artifact-1",
  "contractName": "SmartPortal",
  "sourceName": "contracts/WavePortal.sol",
  "abi": [
    {
      "inputs": [],
      "stateMutability": "payable",
      "type": "constructor"
    },
    {
      "anonymous": false,
      "inputs": [
        {
          "indexed": true,
          "internalType": "address",
          "name": "from",
          "type": "address"
        },
        {
          "indexed": false,
          "internalType": "string",
          "name": "character",
          "type": "string"
        },
        {
          "indexed": false,
          "internalType": "uint256",
          "name": "characterIndex",
          "type": "uint256"
        },
        {
          "indexed": false,
          "internalType": "string",
          "name": "message",
          "type": "string"
        },
        {
          "indexed": false,
          "internalType": "uint256",
          "name": "timestamp",
          "type": "uint256"
        }
      ],
      "name": "NewWave",
      "type": "event"
    },
    {
      "inputs": [],
      "name": "getAllWaves",
      "outputs": [
        {
          "components": [
            {
              "internalType": "address",
              "name": "waver",
              "type": "address"
            },
            {
              "internalType": "string",
              "name": "character",
              "type": "string"
            },
            {
              "internalType": "uint256",
              "name": "characterIndex",
              "type": "uint256"
            },
            {
              "internalType": "string",
              "name": "message",
              "type": "string"
            },
            {
              "internalType": "uint256",
              "name": "timestamp",
              "type": "uint256"
            }
          ],
          "internalType": "struct SmartPortal.Wave[]",
          "name": "",
          "type": "tuple[]"
        }
      ],
      "stateMutability": "view",
      "type": "function"
    },
    {
      "inputs": [],
      "name": "getWaveStatus",
      "outputs": [
        {
          "internalType": "uint256",
          "name": "",
          "type": "uint256"
        }
      ],
      "stateMutability": "view",
      "type": "function"
    },
    {
      "inputs": [
        {
          "internalType": "address",
          "name": "",
          "type": "address"
        }
      ],
      "name": "lastWavedAt",
      "outputs": [
        {
          "internalType": "uint256",
          "name": "",
          "type": "uint256"
        }
      ],
      "stateMutability": "view",
      "type": "function"
    },
    {
      "inputs": [
        {
          "internalType": "string",
          "name": "_character",
          "type": "string"
        },
        {
          "internalType": "uint256",
          "name": "_characterIndex",
          "type": "uint256"
        },
        {
          "internalType": "string",
          "name": "_message",
          "type": "string"
        }
      ],
      "name": "wave",
      "outputs": [],
      "stateMutability": "nonpayable",
      "type": "function"
    }
  ],
  "bytecode": "0x608060405262000033604051806060016040528060398152602001620018cd603991396200005b60201b620007501760201c565b6064444262000043919062000160565b6200004f9190620001ca565b600181905550620002c0565b620000fb816040516024016200007291906200029c565b6040516020818303038152906040527f41304fac000000000000000000000000000000000000000000000000000000007bffffffffffffffffffffffffffffffffffffffffffffffffffffffff19166020820180517bffffffffffffffffffffffffffffffffffffffffffffffffffffffff8381831617835250505050620000fe60201b60201c565b50565b60008151905060006a636f6e736f6c652e6c6f679050602083016000808483855afa5050505050565b6000819050919050565b7f4e487b7100000000000000000000000000000000000000000000000000000000600052601160045260246000fd5b60006200016d8262000127565b91506200017a8362000127565b925082820190508082111562000195576200019462000131565b5b92915050565b7f4e487b7100000000000000000000000000000000000000000000000000000000600052601260045260246000fd5b6000620001d78262000127565b9150620001e48362000127565b925082620001f757620001f66200019b565b5b828206905092915050565b600081519050919050565b600082825260208201905092915050565b60005b838110156200023e57808201518184015260208101905062000221565b60008484015250505050565b6000601f19601f8301169050919050565b6000620002688262000202565b6200027481856200020d565b9350620002868185602086016200021e565b62000291816200024a565b840191505092915050565b60006020820190508181036000830152620002b881846200025b565b905092915050565b6115fd80620002d06000396000f3fe608060405234801561001057600080fd5b506004361061004c5760003560e01c8063622f962914610051578063a42a46631461006f578063bd43a9081461009f578063c47a7751146100bd575b600080fd5b6100596100d9565b6040516100669190610a02565b60405180910390f35b61008960048036038101906100849190610a8f565b610124565b6040516100969190610a02565b60405180910390f35b6100a761013c565b6040516100b49190610ca9565b60405180910390f35b6100d760048036038101906100d29190610e2c565b610329565b005b600061011c6040518060400160405280601681526020017f43757272656e74207761766520636f756e743a202564000000000000000000008152506000546107e9565b600054905090565b60036020528060005260406000206000915090505481565b60606002805480602002602001604051908101604052809291908181526020016000905b8282101561032057838290600052602060002090600502016040518060a00160405290816000820160009054906101000a900473ffffffffffffffffffffffffffffffffffffffff1673ffffffffffffffffffffffffffffffffffffffff1673ffffffffffffffffffffffffffffffffffffffff1681526020016001820180546101e990610ee6565b80601f016020809104026020016040519081016040528092919081815260200182805461021590610ee6565b80156102625780601f1061023757610100808354040283529160200191610262565b820191906000526020600020905b81548152906001019060200180831161024557829003601f168201915b505050505081526020016002820154815260200160038201805461028590610ee6565b80601f01602080910402602001604051908101604052809291908181526020018280546102b190610ee6565b80156102fe5780601f106102d3576101008083540402835291602001916102fe565b820191906000526020600020905b8154815290600101906020018083116102e157829003601f168201915b5050505050815260200160048201548152505081526020019060010190610160565b50505050905090565b42601e600360003373ffffffffffffffffffffffffffffffffffffffff1673ffffffffffffffffffffffffffffffffffffffff168152602001908152602001600020546103769190610f46565b106103b6576040517f08c379a00000000000000000000000000000000000000000000000000000000081526004016103ad90610ffd565b60405180910390fd5b42600360003373ffffffffffffffffffffffffffffffffffffffff1673ffffffffffffffffffffffffffffffffffffffff16815260200190815260200160002081905550600160008082825461040c9190610f46565b925050819055506104536040518060400160405280601681526020017f257320776176656420772f206d657373616765202573000000000000000000008152503383610885565b60026040518060a001604052803373ffffffffffffffffffffffffffffffffffffffff16815260200185815260200184815260200183815260200142815250908060018154018082558091505060019003906000526020600020906005020160009091909190915060008201518160000160006101000a81548173ffffffffffffffffffffffffffffffffffffffff021916908373ffffffffffffffffffffffffffffffffffffffff160217905550602082015181600101908161051791906111c9565b5060408201518160020155606082015181600301908161053791906111c9565b50608082015181600401555050606460015442446105559190610f46565b61055f9190610f46565b61056991906112ca565b6001819055506105b06040518060400160405280601681526020017f52616e646f6d20232067656e6572617465643a202564000000000000000000008152506001546107e9565b603260015410156106f7576105fa6040518060400160405280600781526020017f257320776f6e210000000000000000000000000000000000000000000000000081525033610924565b6000655af3107a4000905047811115610648576040517f08c379a000000000000000000000000000000000000000000000000000000000815260040161063f9061136d565b60405180910390fd5b60003373ffffffffffffffffffffffffffffffffffffffff168260405161066e906113be565b60006040518083038185875af1925050503d80600081146106ab576040519150601f19603f3d011682016040523d82523d6000602084013e6106b0565b606091505b50509050806106f4576040517f08c379a00000000000000000000000000000000000000000000000000000000081526004016106eb90611445565b60405180910390fd5b50505b3373ffffffffffffffffffffffffffffffffffffffff167f6c690429c1ab81e8221d73a41906d4ec4d2e966ee84b5de93a7e6a3e892d874084848442604051610743949392919061149e565b60405180910390a2505050565b6107e68160405160240161076491906114f1565b6040516020818303038152906040527f41304fac000000000000000000000000000000000000000000000000000000007bffffffffffffffffffffffffffffffffffffffffffffffffffffffff19166020820180517bffffffffffffffffffffffffffffffffffffffffffffffffffffffff83818316178352505050506109c0565b50565b61088182826040516024016107ff929190611513565b6040516020818303038152906040527fb60e72cc000000000000000000000000000000000000000000000000000000007bffffffffffffffffffffffffffffffffffffffffffffffffffffffff19166020820180517bffffffffffffffffffffffffffffffffffffffffffffffffffffffff83818316178352505050506109c0565b5050565b61091f83838360405160240161089d93929190611552565b6040516020818303038152906040527fe0e9ad4f000000000000000000000000000000000000000000000000000000007bffffffffffffffffffffffffffffffffffffffffffffffffffffffff19166020820180517bffffffffffffffffffffffffffffffffffffffffffffffffffffffff83818316178352505050506109c0565b505050565b6109bc828260405160240161093a929190611597565b6040516020818303038152906040527f319af333000000000000000000000000000000000000000000000000000000007bffffffffffffffffffffffffffffffffffffffffffffffffffffffff19166020820180517bffffffffffffffffffffffffffffffffffffffffffffffffffffffff83818316178352505050506109c0565b5050565b60008151905060006a636f6e736f6c652e6c6f679050602083016000808483855afa5050505050565b6000819050919050565b6109fc816109e9565b82525050565b6000602082019050610a1760008301846109f3565b92915050565b6000604051905090565b600080fd5b600080fd5b600073ffffffffffffffffffffffffffffffffffffffff82169050919050565b6000610a5c82610a31565b9050919050565b610a6c81610a51565b8114610a7757600080fd5b50565b600081359050610a8981610a63565b92915050565b600060208284031215610aa557610aa4610a27565b5b6000610ab384828501610a7a565b91505092915050565b600081519050919050565b600082825260208201905092915050565b6000819050602082019050919050565b610af181610a51565b82525050565b600081519050919050565b600082825260208201905092915050565b60005b83811015610b31578082015181840152602081019050610b16565b60008484015250505050565b6000601f19601f8301169050919050565b6000610b5982610af7565b610b638185610b02565b9350610b73818560208601610b13565b610b7c81610b3d565b840191505092915050565b610b90816109e9565b82525050565b600060a083016000830151610bae6000860182610ae8565b5060208301518482036020860152610bc68282610b4e565b9150506040830151610bdb6040860182610b87565b5060608301518482036060860152610bf38282610b4e565b9150506080830151610c086080860182610b87565b508091505092915050565b6000610c1f8383610b96565b905092915050565b6000602082019050919050565b6000610c3f82610abc565b610c498185610ac7565b935083602082028501610c5b85610ad8565b8060005b85811015610c975784840389528151610c788582610c13565b9450610c8383610c27565b925060208a01995050600181019050610c5f565b50829750879550505050505092915050565b60006020820190508181036000830152610cc38184610c34565b905092915050565b600080fd5b600080fd5b7f4e487b7100000000000000000000000000000000000000000000000000000000600052604160045260246000fd5b610d0d82610b3d565b810181811067ffffffffffffffff82111715610d2c57610d2b610cd5565b5b80604052505050565b6000610d3f610a1d565b9050610d4b8282610d04565b919050565b600067ffffffffffffffff821115610d6b57610d6a610cd5565b5b610d7482610b3d565b9050602081019050919050565b82818337600083830152505050565b6000610da3610d9e84610d50565b610d35565b905082815260208101848484011115610dbf57610dbe610cd0565b5b610dca848285610d81565b509392505050565b600082601f830112610de757610de6610ccb565b5b8135610df7848260208601610d90565b91505092915050565b610e09816109e9565b8114610e1457600080fd5b50565b600081359050610e2681610e00565b92915050565b600080600060608486031215610e4557610e44610a27565b5b600084013567ffffffffffffffff811115610e6357610e62610a2c565b5b610e6f86828701610dd2565b9350506020610e8086828701610e17565b925050604084013567ffffffffffffffff811115610ea157610ea0610a2c565b5b610ead86828701610dd2565b9150509250925092565b7f4e487b7100000000000000000000000000000000000000000000000000000000600052602260045260246000fd5b60006002820490506001821680610efe57607f821691505b602082108103610f1157610f10610eb7565b5b50919050565b7f4e487b7100000000000000000000000000000000000000000000000000000000600052601160045260246000fd5b6000610f51826109e9565b9150610f5c836109e9565b9250828201905080821115610f7457610f73610f17565b5b92915050565b600082825260208201905092915050565b7f4d7573742077616974203330207365636f6e6473206265666f7265207761766960008201527f6e6720616761696e2e0000000000000000000000000000000000000000000000602082015250565b6000610fe7602983610f7a565b9150610ff282610f8b565b604082019050919050565b6000602082019050818103600083015261101681610fda565b9050919050565b60008190508160005260206000209050919050565b60006020601f8301049050919050565b600082821b905092915050565b60006008830261107f7fffffffffffffffffffffffffffffffffffffffffffffffffffffffffffffffff82611042565b6110898683611042565b95508019841693508086168417925050509392505050565b6000819050919050565b60006110c66110c16110bc846109e9565b6110a1565b6109e9565b9050919050565b6000819050919050565b6110e0836110ab565b6110f46110ec826110cd565b84845461104f565b825550505050565b600090565b6111096110fc565b6111148184846110d7565b505050565b5b818110156111385761112d600082611101565b60018101905061111a565b5050565b601f82111561117d5761114e8161101d565b61115784611032565b81016020851015611166578190505b61117a61117285611032565b830182611119565b50505b505050565b600082821c905092915050565b60006111a060001984600802611182565b1980831691505092915050565b60006111b9838361118f565b9150826002028217905092915050565b6111d282610af7565b67ffffffffffffffff8111156111eb576111ea610cd5565b5b6111f58254610ee6565b61120082828561113c565b600060209050601f8311600181146112335760008415611221578287015190505b61122b85826111ad565b865550611293565b601f1984166112418661101d565b60005b8281101561126957848901518255600182019150602085019450602081019050611244565b868310156112865784890151611282601f89168261118f565b8355505b6001600288020188555050505b505050505050565b7f4e487b7100000000000000000000000000000000000000000000000000000000600052601260045260246000fd5b60006112d5826109e9565b91506112e0836109e9565b9250826112f0576112ef61129b565b5b828206905092915050565b7f547279696e6720746f207769746864726177206d6f7265206d6f6e657920746860008201527f616e2074686520636f6e7472616374206861732e000000000000000000000000602082015250565b6000611357603483610f7a565b9150611362826112fb565b604082019050919050565b600060208201905081810360008301526113868161134a565b9050919050565b600081905092915050565b50565b60006113a860008361138d565b91506113b382611398565b600082019050919050565b60006113c98261139b565b9150819050919050565b7f4661696c656420746f207769746864726177206d6f6e65792066726f6d20636f60008201527f6e74726163742e00000000000000000000000000000000000000000000000000602082015250565b600061142f602783610f7a565b915061143a826113d3565b604082019050919050565b6000602082019050818103600083015261145e81611422565b9050919050565b600061147082610af7565b61147a8185610f7a565b935061148a818560208601610b13565b61149381610b3d565b840191505092915050565b600060808201905081810360008301526114b88187611465565b90506114c760208301866109f3565b81810360408301526114d98185611465565b90506114e860608301846109f3565b95945050505050565b6000602082019050818103600083015261150b8184611465565b905092915050565b6000604082019050818103600083015261152d8185611465565b905061153c60208301846109f3565b9392505050565b61154c81610a51565b82525050565b6000606082019050818103600083015261156c8186611465565b905061157b6020830185611543565b818103604083015261158d8184611465565b9050949350505050565b600060408201905081810360008301526115b18185611465565b90506115c06020830184611543565b939250505056fea2646970667358221220178acb149a9f52eed57d1d86d57153a8f5a3748c805f73b0beb43f90c910e54c64736f6c63430008110033486920746865726521204920616d2053696d6f2e20536179206869207769746820796f7572206661766f726974652073757065726865726f21",
  "linkReferences": {},
  "deployedLinkReferences": {}
}