{
  "_format": "hh-sol-artifact-1",
  "contractName": "SmartPortal",
  "sourceName": "contracts/WavePortal.sol",
  "abi": [
    {
      "inputs": [],
      "stateMutability": "nonpayable",
      "type": "constructor"
    },
    {
      "anonymous": false,
      "inputs": [
        {
          "indexed": true,
          "internalType": "address",
          "name": "from",
          "type": "address"
        },
        {
          "indexed": false,
          "internalType": "string",
          "name": "character",
          "type": "string"
        },
        {
          "indexed": false,
          "internalType": "uint256",
          "name": "characterIndex",
          "type": "uint256"
        },
        {
          "indexed": false,
          "internalType": "string",
          "name": "message",
          "type": "string"
        },
        {
          "indexed": false,
          "internalType": "uint256",
          "name": "timestamp",
          "type": "uint256"
        }
      ],
      "name": "NewWave",
      "type": "event"
    },
    {
      "inputs": [],
      "name": "getAllWaves",
      "outputs": [
        {
          "components": [
            {
              "internalType": "address",
              "name": "waver",
              "type": "address"
            },
            {
              "internalType": "string",
              "name": "character",
              "type": "string"
            },
            {
              "internalType": "uint256",
              "name": "characterIndex",
              "type": "uint256"
            },
            {
              "internalType": "string",
              "name": "message",
              "type": "string"
            },
            {
              "internalType": "uint256",
              "name": "timestamp",
              "type": "uint256"
            }
          ],
          "internalType": "struct SmartPortal.Wave[]",
          "name": "",
          "type": "tuple[]"
        }
      ],
      "stateMutability": "view",
      "type": "function"
    },
    {
      "inputs": [],
      "name": "getWaveStatus",
      "outputs": [
        {
          "internalType": "uint256",
          "name": "",
          "type": "uint256"
        }
      ],
      "stateMutability": "view",
      "type": "function"
    },
    {
      "inputs": [
        {
          "internalType": "string",
          "name": "_character",
          "type": "string"
        },
        {
          "internalType": "uint256",
          "name": "_characterIndex",
          "type": "uint256"
        },
        {
          "internalType": "string",
          "name": "_message",
          "type": "string"
        }
      ],
      "name": "wave",
      "outputs": [],
      "stateMutability": "nonpayable",
      "type": "function"
    }
  ],
  "bytecode": "0x60806040523480156200001157600080fd5b506200004160405180606001604052806037815260200162001186603791396200004760201b620004791760201c565b620001d1565b620000e7816040516024016200005e9190620001ad565b6040516020818303038152906040527f41304fac000000000000000000000000000000000000000000000000000000007bffffffffffffffffffffffffffffffffffffffffffffffffffffffff19166020820180517bffffffffffffffffffffffffffffffffffffffffffffffffffffffff8381831617835250505050620000ea60201b60201c565b50565b60008151905060006a636f6e736f6c652e6c6f679050602083016000808483855afa5050505050565b600081519050919050565b600082825260208201905092915050565b60005b838110156200014f57808201518184015260208101905062000132565b60008484015250505050565b6000601f19601f8301169050919050565b6000620001798262000113565b6200018581856200011e565b9350620001978185602086016200012f565b620001a2816200015b565b840191505092915050565b60006020820190508181036000830152620001c981846200016c565b905092915050565b610fa580620001e16000396000f3fe608060405234801561001057600080fd5b50600436106100415760003560e01c8063622f962914610046578063bd43a90814610064578063c47a775114610082575b600080fd5b61004e61009e565b60405161005b919061068f565b60405180910390f35b61006c6100e9565b60405161007991906108c9565b60405180910390f35b61009c60048036038101906100979190610a60565b6102d6565b005b60006100e16040518060400160405280601681526020017f43757272656e74207761766520636f756e743a20256400000000000000000000815250600054610512565b600054905090565b60606001805480602002602001604051908101604052809291908181526020016000905b828210156102cd57838290600052602060002090600502016040518060a00160405290816000820160009054906101000a900473ffffffffffffffffffffffffffffffffffffffff1673ffffffffffffffffffffffffffffffffffffffff1673ffffffffffffffffffffffffffffffffffffffff16815260200160018201805461019690610b1a565b80601f01602080910402602001604051908101604052809291908181526020018280546101c290610b1a565b801561020f5780601f106101e45761010080835404028352916020019161020f565b820191906000526020600020905b8154815290600101906020018083116101f257829003601f168201915b505050505081526020016002820154815260200160038201805461023290610b1a565b80601f016020809104026020016040519081016040528092919081815260200182805461025e90610b1a565b80156102ab5780601f10610280576101008083540402835291602001916102ab565b820191906000526020600020905b81548152906001019060200180831161028e57829003601f168201915b505050505081526020016004820154815250508152602001906001019061010d565b50505050905090565b60016000808282546102e89190610b7a565b9250508190555061032f6040518060400160405280601681526020017f257320776176656420772f206d6573736167652025730000000000000000000081525033836105ae565b60016040518060a001604052803373ffffffffffffffffffffffffffffffffffffffff16815260200185815260200184815260200183815260200142815250908060018154018082558091505060019003906000526020600020906005020160009091909190915060008201518160000160006101000a81548173ffffffffffffffffffffffffffffffffffffffff021916908373ffffffffffffffffffffffffffffffffffffffff16021790555060208201518160010190816103f39190610d5a565b506040820151816002015560608201518160030190816104139190610d5a565b506080820151816004015550503373ffffffffffffffffffffffffffffffffffffffff167f6c690429c1ab81e8221d73a41906d4ec4d2e966ee84b5de93a7e6a3e892d87408484844260405161046c9493929190610e76565b60405180910390a2505050565b61050f8160405160240161048d9190610ec9565b6040516020818303038152906040527f41304fac000000000000000000000000000000000000000000000000000000007bffffffffffffffffffffffffffffffffffffffffffffffffffffffff19166020820180517bffffffffffffffffffffffffffffffffffffffffffffffffffffffff838183161783525050505061064d565b50565b6105aa8282604051602401610528929190610eeb565b6040516020818303038152906040527fb60e72cc000000000000000000000000000000000000000000000000000000007bffffffffffffffffffffffffffffffffffffffffffffffffffffffff19166020820180517bffffffffffffffffffffffffffffffffffffffffffffffffffffffff838183161783525050505061064d565b5050565b6106488383836040516024016105c693929190610f2a565b6040516020818303038152906040527fe0e9ad4f000000000000000000000000000000000000000000000000000000007bffffffffffffffffffffffffffffffffffffffffffffffffffffffff19166020820180517bffffffffffffffffffffffffffffffffffffffffffffffffffffffff838183161783525050505061064d565b505050565b60008151905060006a636f6e736f6c652e6c6f679050602083016000808483855afa5050505050565b6000819050919050565b61068981610676565b82525050565b60006020820190506106a46000830184610680565b92915050565b600081519050919050565b600082825260208201905092915050565b6000819050602082019050919050565b600073ffffffffffffffffffffffffffffffffffffffff82169050919050565b6000610701826106d6565b9050919050565b610711816106f6565b82525050565b600081519050919050565b600082825260208201905092915050565b60005b83811015610751578082015181840152602081019050610736565b60008484015250505050565b6000601f19601f8301169050919050565b600061077982610717565b6107838185610722565b9350610793818560208601610733565b61079c8161075d565b840191505092915050565b6107b081610676565b82525050565b600060a0830160008301516107ce6000860182610708565b50602083015184820360208601526107e6828261076e565b91505060408301516107fb60408601826107a7565b5060608301518482036060860152610813828261076e565b915050608083015161082860808601826107a7565b508091505092915050565b600061083f83836107b6565b905092915050565b6000602082019050919050565b600061085f826106aa565b61086981856106b5565b93508360208202850161087b856106c6565b8060005b858110156108b757848403895281516108988582610833565b94506108a383610847565b925060208a0199505060018101905061087f565b50829750879550505050505092915050565b600060208201905081810360008301526108e38184610854565b905092915050565b6000604051905090565b600080fd5b600080fd5b600080fd5b600080fd5b7f4e487b7100000000000000000000000000000000000000000000000000000000600052604160045260246000fd5b6109418261075d565b810181811067ffffffffffffffff821117156109605761095f610909565b5b80604052505050565b60006109736108eb565b905061097f8282610938565b919050565b600067ffffffffffffffff82111561099f5761099e610909565b5b6109a88261075d565b9050602081019050919050565b82818337600083830152505050565b60006109d76109d284610984565b610969565b9050828152602081018484840111156109f3576109f2610904565b5b6109fe8482856109b5565b509392505050565b600082601f830112610a1b57610a1a6108ff565b5b8135610a2b8482602086016109c4565b91505092915050565b610a3d81610676565b8114610a4857600080fd5b50565b600081359050610a5a81610a34565b92915050565b600080600060608486031215610a7957610a786108f5565b5b600084013567ffffffffffffffff811115610a9757610a966108fa565b5b610aa386828701610a06565b9350506020610ab486828701610a4b565b925050604084013567ffffffffffffffff811115610ad557610ad46108fa565b5b610ae186828701610a06565b9150509250925092565b7f4e487b7100000000000000000000000000000000000000000000000000000000600052602260045260246000fd5b60006002820490506001821680610b3257607f821691505b602082108103610b4557610b44610aeb565b5b50919050565b7f4e487b7100000000000000000000000000000000000000000000000000000000600052601160045260246000fd5b6000610b8582610676565b9150610b9083610676565b9250828201905080821115610ba857610ba7610b4b565b5b92915050565b60008190508160005260206000209050919050565b60006020601f8301049050919050565b600082821b905092915050565b600060088302610c107fffffffffffffffffffffffffffffffffffffffffffffffffffffffffffffffff82610bd3565b610c1a8683610bd3565b95508019841693508086168417925050509392505050565b6000819050919050565b6000610c57610c52610c4d84610676565b610c32565b610676565b9050919050565b6000819050919050565b610c7183610c3c565b610c85610c7d82610c5e565b848454610be0565b825550505050565b600090565b610c9a610c8d565b610ca5818484610c68565b505050565b5b81811015610cc957610cbe600082610c92565b600181019050610cab565b5050565b601f821115610d0e57610cdf81610bae565b610ce884610bc3565b81016020851015610cf7578190505b610d0b610d0385610bc3565b830182610caa565b50505b505050565b600082821c905092915050565b6000610d3160001984600802610d13565b1980831691505092915050565b6000610d4a8383610d20565b9150826002028217905092915050565b610d6382610717565b67ffffffffffffffff811115610d7c57610d7b610909565b5b610d868254610b1a565b610d91828285610ccd565b600060209050601f831160018114610dc45760008415610db2578287015190505b610dbc8582610d3e565b865550610e24565b601f198416610dd286610bae565b60005b82811015610dfa57848901518255600182019150602085019450602081019050610dd5565b86831015610e175784890151610e13601f891682610d20565b8355505b6001600288020188555050505b505050505050565b600082825260208201905092915050565b6000610e4882610717565b610e528185610e2c565b9350610e62818560208601610733565b610e6b8161075d565b840191505092915050565b60006080820190508181036000830152610e908187610e3d565b9050610e9f6020830186610680565b8181036040830152610eb18185610e3d565b9050610ec06060830184610680565b95945050505050565b60006020820190508181036000830152610ee38184610e3d565b905092915050565b60006040820190508181036000830152610f058185610e3d565b9050610f146020830184610680565b9392505050565b610f24816106f6565b82525050565b60006060820190508181036000830152610f448186610e3d565b9050610f536020830185610f1b565b8181036040830152610f658184610e3d565b905094935050505056fea2646970667358221220b4d322e5e731860719045689ac72b3d6f4aaba4eb2fb7d80aac31c0512e4ac4964736f6c63430008110033486920746865726521204920616d2053696d6f2e20536179206869207769746820796f7572206661766f7269746520706f6b656d6f6e21",
  "linkReferences": {},
  "deployedLinkReferences": {}
}